{
  "_format": "hh-sol-artifact-1",
  "contractName": "Battleship",
  "sourceName": "contracts/Battleship.sol",
  "abi": [
    {
      "inputs": [
        {
          "internalType": "address",
          "name": "_battleshipGroth16Verifier",
          "type": "address"
        },
        {
          "internalType": "address",
          "name": "_gridPosGroth16Verifier",
          "type": "address"
        }
      ],
      "stateMutability": "nonpayable",
      "type": "constructor"
    },
    {
      "anonymous": false,
      "inputs": [
        {
          "indexed": false,
          "internalType": "address",
          "name": "attacker",
          "type": "address"
        },
        {
          "indexed": false,
          "internalType": "uint256",
          "name": "x",
          "type": "uint256"
        },
        {
          "indexed": false,
          "internalType": "uint256",
          "name": "y",
          "type": "uint256"
        }
      ],
      "name": "AttackCommitted",
      "type": "event"
    },
    {
      "anonymous": false,
      "inputs": [
        {
          "indexed": false,
          "internalType": "address",
          "name": "player",
          "type": "address"
        }
      ],
      "name": "CommitmentSubmitted",
      "type": "event"
    },
    {
      "anonymous": false,
      "inputs": [
        {
          "indexed": false,
          "internalType": "address",
          "name": "player",
          "type": "address"
        }
      ],
      "name": "GameJoined",
      "type": "event"
    },
    {
      "anonymous": false,
      "inputs": [
        {
          "indexed": false,
          "internalType": "address",
          "name": "winner",
          "type": "address"
        }
      ],
      "name": "GameOver",
      "type": "event"
    },
    {
      "anonymous": false,
      "inputs": [],
      "name": "GameStarted",
      "type": "event"
    },
    {
      "anonymous": false,
      "inputs": [
        {
          "indexed": false,
          "internalType": "address",
          "name": "defender",
          "type": "address"
        },
        {
          "indexed": false,
          "internalType": "uint256",
          "name": "hit",
          "type": "uint256"
        }
      ],
      "name": "ProofSubmitted",
      "type": "event"
    },
    {
      "inputs": [],
      "name": "MAX_SCORE",
      "outputs": [
        {
          "internalType": "uint256",
          "name": "",
          "type": "uint256"
        }
      ],
      "stateMutability": "view",
      "type": "function"
    },
    {
      "inputs": [
        {
          "internalType": "uint256",
          "name": "x",
          "type": "uint256"
        },
        {
          "internalType": "uint256",
          "name": "y",
          "type": "uint256"
        }
      ],
      "name": "attack",
      "outputs": [],
      "stateMutability": "nonpayable",
      "type": "function"
    },
    {
      "inputs": [],
      "name": "battleshipGroth16Verifier",
      "outputs": [
        {
          "internalType": "contract BattleshipGroth16Verifier",
          "name": "",
          "type": "address"
        }
      ],
      "stateMutability": "view",
      "type": "function"
    },
    {
      "inputs": [],
      "name": "commitDeadline",
      "outputs": [
        {
          "internalType": "uint256",
          "name": "",
          "type": "uint256"
        }
      ],
      "stateMutability": "view",
      "type": "function"
    },
    {
      "inputs": [
        {
          "internalType": "uint256[2]",
          "name": "_pA",
          "type": "uint256[2]"
        },
        {
          "internalType": "uint256[2][2]",
          "name": "_pB",
          "type": "uint256[2][2]"
        },
        {
          "internalType": "uint256[2]",
          "name": "_pC",
          "type": "uint256[2]"
        },
        {
          "internalType": "uint256[2]",
          "name": "_pubSignals",
          "type": "uint256[2]"
        }
      ],
      "name": "commitGrid",
      "outputs": [],
      "stateMutability": "nonpayable",
      "type": "function"
    },
    {
      "inputs": [
        {
          "internalType": "address",
          "name": "",
          "type": "address"
        }
      ],
      "name": "commitments",
      "outputs": [
        {
          "internalType": "uint256",
          "name": "x",
          "type": "uint256"
        },
        {
          "internalType": "uint256",
          "name": "y",
          "type": "uint256"
        }
      ],
      "stateMutability": "view",
      "type": "function"
    },
    {
      "inputs": [],
      "name": "currentAttackX",
      "outputs": [
        {
          "internalType": "uint256",
          "name": "",
          "type": "uint256"
        }
      ],
      "stateMutability": "view",
      "type": "function"
    },
    {
      "inputs": [],
      "name": "currentAttackY",
      "outputs": [
        {
          "internalType": "uint256",
          "name": "",
          "type": "uint256"
        }
      ],
      "stateMutability": "view",
      "type": "function"
    },
    {
      "inputs": [],
      "name": "currentAttacker",
      "outputs": [
        {
          "internalType": "address",
          "name": "",
          "type": "address"
        }
      ],
      "stateMutability": "view",
      "type": "function"
    },
    {
      "inputs": [],
      "name": "currentDefender",
      "outputs": [
        {
          "internalType": "address",
          "name": "",
          "type": "address"
        }
      ],
      "stateMutability": "view",
      "type": "function"
    },
    {
      "inputs": [],
      "name": "currentPhase",
      "outputs": [
        {
          "internalType": "enum Battleship.Phase",
          "name": "",
          "type": "uint8"
        }
      ],
      "stateMutability": "view",
      "type": "function"
    },
    {
      "inputs": [],
      "name": "currentTurnDeadline",
      "outputs": [
        {
          "internalType": "uint256",
          "name": "",
          "type": "uint256"
        }
      ],
      "stateMutability": "view",
      "type": "function"
    },
    {
      "inputs": [],
      "name": "gameState",
      "outputs": [
        {
          "internalType": "enum Battleship.GameState",
          "name": "",
          "type": "uint8"
        }
      ],
      "stateMutability": "view",
      "type": "function"
    },
    {
      "inputs": [],
      "name": "gridPosGroth16Verifier",
      "outputs": [
        {
          "internalType": "contract GridPosGroth16Verifier",
          "name": "",
          "type": "address"
        }
      ],
      "stateMutability": "view",
      "type": "function"
    },
    {
      "inputs": [],
      "name": "join",
      "outputs": [],
      "stateMutability": "nonpayable",
      "type": "function"
    },
    {
      "inputs": [],
      "name": "player1",
      "outputs": [
        {
          "internalType": "address",
          "name": "",
          "type": "address"
        }
      ],
      "stateMutability": "view",
      "type": "function"
    },
    {
      "inputs": [],
      "name": "player2",
      "outputs": [
        {
          "internalType": "address",
          "name": "",
          "type": "address"
        }
      ],
      "stateMutability": "view",
      "type": "function"
    },
    {
      "inputs": [
        {
          "internalType": "address",
          "name": "",
          "type": "address"
        }
      ],
      "name": "scores",
      "outputs": [
        {
          "internalType": "uint256",
          "name": "",
          "type": "uint256"
        }
      ],
      "stateMutability": "view",
      "type": "function"
    },
    {
      "inputs": [
        {
          "internalType": "uint256[2]",
          "name": "_pA",
          "type": "uint256[2]"
        },
        {
          "internalType": "uint256[2][2]",
          "name": "_pB",
          "type": "uint256[2][2]"
        },
        {
          "internalType": "uint256[2]",
          "name": "_pC",
          "type": "uint256[2]"
        },
        {
          "internalType": "uint256[5]",
          "name": "_pubSignals",
          "type": "uint256[5]"
        }
      ],
      "name": "submitProof",
      "outputs": [],
      "stateMutability": "nonpayable",
      "type": "function"
    },
    {
      "inputs": [],
      "name": "timeout",
      "outputs": [],
      "stateMutability": "nonpayable",
      "type": "function"
    }
  ],
  "bytecode": "0x608060405234801561001057600080fd5b50604051612fc2380380612fc28339818101604052810190610032919061011e565b81600a60006101000a81548173ffffffffffffffffffffffffffffffffffffffff021916908373ffffffffffffffffffffffffffffffffffffffff16021790555080600b60006101000a81548173ffffffffffffffffffffffffffffffffffffffff021916908373ffffffffffffffffffffffffffffffffffffffff160217905550505061015e565b600080fd5b600073ffffffffffffffffffffffffffffffffffffffff82169050919050565b60006100eb826100c0565b9050919050565b6100fb816100e0565b811461010657600080fd5b50565b600081519050610118816100f2565b92915050565b60008060408385031215610135576101346100bb565b5b600061014385828601610109565b925050602061015485828601610109565b9150509250929050565b612e558061016d6000396000f3fe608060405234801561001057600080fd5b506004361061012c5760003560e01c8063a2ff0209116100ad578063d1f9c24d11610071578063d1f9c24d146102d9578063d30895e4146102f7578063e1fa763814610315578063e8fcf72314610331578063f47177dd146103625761012c565b8063a2ff020914610257578063a493259214610275578063b688a36314610293578063c258e8f71461029d578063cccc54ed146102bb5761012c565b806362b6d970116100f457806362b6d970146101c557806370dea79a146101e357806376dd110f146101ed5780638b45fec01461021d578063a0e9b0451461023b5761012c565b8063055ad42e146101315780630a0c052a1461014f57806322484f261461016d57806327ff62231461018957806359a5f12d146101a7575b600080fd5b610139610380565b6040516101469190611f75565b60405180910390f35b610157610393565b604051610164919061200f565b60405180910390f35b61018760048036038101906101829190612078565b6103b9565b005b610191610b05565b60405161019e91906120fa565b60405180910390f35b6101af610b0a565b6040516101bc9190612136565b60405180910390f35b6101cd610b30565b6040516101da9190612172565b60405180910390f35b6101eb610b56565b005b610207600480360381019061020291906121b9565b610fe4565b60405161021491906120fa565b60405180910390f35b610225610ffc565b60405161023291906120fa565b60405180910390f35b61025560048036038101906102509190612208565b611002565b005b61025f611816565b60405161026c91906120fa565b60405180910390f35b61027d61181c565b60405161028a9190612136565b60405180910390f35b61029b611842565b005b6102a5611af1565b6040516102b291906120fa565b60405180910390f35b6102c3611af7565b6040516102d09190612136565b60405180910390f35b6102e1611b1d565b6040516102ee91906122b9565b60405180910390f35b6102ff611b30565b60405161030c9190612136565b60405180910390f35b61032f600480360381019061032a9190612300565b611b54565b005b61034b600480360381019061034691906121b9565b611ed4565b604051610359929190612340565b60405180910390f35b61036a611ef8565b60405161037791906120fa565b60405180910390f35b600160159054906101000a900460ff1681565b600b60009054906101000a900473ffffffffffffffffffffffffffffffffffffffff1681565b60008054906101000a900473ffffffffffffffffffffffffffffffffffffffff1673ffffffffffffffffffffffffffffffffffffffff163373ffffffffffffffffffffffffffffffffffffffff1614806104605750600160009054906101000a900473ffffffffffffffffffffffffffffffffffffffff1673ffffffffffffffffffffffffffffffffffffffff163373ffffffffffffffffffffffffffffffffffffffff16145b61049f576040517f08c379a0000000000000000000000000000000000000000000000000000000008152600401610496906123c6565b60405180910390fd5b600a60009054906101000a900473ffffffffffffffffffffffffffffffffffffffff1673ffffffffffffffffffffffffffffffffffffffff1663f5c9d69e858585856040518563ffffffff1660e01b815260040161050094939291906124be565b602060405180830381865afa15801561051d573d6000803e3d6000fd5b505050506040513d601f19601f82011682018060405250810190610541919061253d565b610580576040517f08c379a0000000000000000000000000000000000000000000000000000000008152600401610577906125b6565b60405180910390fd5b6001600381111561059457610593611efe565b5b600160149054906101000a900460ff1660038111156105b6576105b5611efe565b5b146105f6576040517f08c379a00000000000000000000000000000000000000000000000000000000081526004016105ed90612622565b60405180910390fd5b6000600460003373ffffffffffffffffffffffffffffffffffffffff1673ffffffffffffffffffffffffffffffffffffffff1681526020019081526020016000206000015414801561068a57506000600460003373ffffffffffffffffffffffffffffffffffffffff1673ffffffffffffffffffffffffffffffffffffffff16815260200190815260200160002060010154145b6106c9576040517f08c379a00000000000000000000000000000000000000000000000000000000081526004016106c09061268e565b60405180910390fd5b60025443111561070e576040517f08c379a0000000000000000000000000000000000000000000000000000000008152600401610705906126fa565b60405180910390fd5b600060405180604001604052808360006002811061072f5761072e61271a565b5b602002013581526020018360016002811061074d5761074c61271a565b5b6020020135815250905080600460003373ffffffffffffffffffffffffffffffffffffffff1673ffffffffffffffffffffffffffffffffffffffff16815260200190815260200160002060008201518160000155602082015181600101559050507f65c25d4214002eb40f6bfafbc94c5d9980955a91823685d3c78f2f5e99e3549f336040516107dd9190612136565b60405180910390a16000600460008060009054906101000a900473ffffffffffffffffffffffffffffffffffffffff1673ffffffffffffffffffffffffffffffffffffffff1673ffffffffffffffffffffffffffffffffffffffff16815260200190815260200160002060000154141580156108bd57506000600460008060009054906101000a900473ffffffffffffffffffffffffffffffffffffffff1673ffffffffffffffffffffffffffffffffffffffff1673ffffffffffffffffffffffffffffffffffffffff1681526020019081526020016000206001015414155b801561092e5750600060046000600160009054906101000a900473ffffffffffffffffffffffffffffffffffffffff1673ffffffffffffffffffffffffffffffffffffffff1673ffffffffffffffffffffffffffffffffffffffff1681526020019081526020016000206000015414155b801561099f5750600060046000600160009054906101000a900473ffffffffffffffffffffffffffffffffffffffff1673ffffffffffffffffffffffffffffffffffffffff1673ffffffffffffffffffffffffffffffffffffffff1681526020019081526020016000206001015414155b15610afe576002600160146101000a81548160ff021916908360038111156109ca576109c9611efe565b5b021790555060008054906101000a900473ffffffffffffffffffffffffffffffffffffffff16600660006101000a81548173ffffffffffffffffffffffffffffffffffffffff021916908373ffffffffffffffffffffffffffffffffffffffff160217905550600160009054906101000a900473ffffffffffffffffffffffffffffffffffffffff16600760006101000a81548173ffffffffffffffffffffffffffffffffffffffff021916908373ffffffffffffffffffffffffffffffffffffffff1602179055506000600160156101000a81548160ff02191690836001811115610ab957610ab8611efe565b5b0217905550601443610acb9190612778565b6003819055507f762f260439bb4be3ef6e4dc2786e2e7bd187d3d80b79057d7a424fe98563e33560405160405180910390a15b5050505050565b601181565b600160009054906101000a900473ffffffffffffffffffffffffffffffffffffffff1681565b600a60009054906101000a900473ffffffffffffffffffffffffffffffffffffffff1681565b60026003811115610b6a57610b69611efe565b5b600160149054906101000a900460ff166003811115610b8c57610b8b611efe565b5b14610bcc576040517f08c379a0000000000000000000000000000000000000000000000000000000008152600401610bc3906127f8565b60405180910390fd5b6003544311610c10576040517f08c379a0000000000000000000000000000000000000000000000000000000008152600401610c0790612864565b60405180910390fd5b60006001811115610c2457610c23611efe565b5b600160159054906101000a900460ff166001811115610c4657610c45611efe565b5b03610cd4576003600160146101000a81548160ff02191690836003811115610c7157610c70611efe565b5b02179055507ff556ad7790e70877edcf3b3bb441255def8a405faa0dfdb005a02fa8e557bca9600760009054906101000a900473ffffffffffffffffffffffffffffffffffffffff16604051610cc79190612136565b60405180910390a1610fe2565b600180811115610ce757610ce6611efe565b5b600160159054906101000a900460ff166001811115610d0957610d08611efe565b5b03610fe15760056000600660009054906101000a900473ffffffffffffffffffffffffffffffffffffffff1673ffffffffffffffffffffffffffffffffffffffff1673ffffffffffffffffffffffffffffffffffffffff1681526020019081526020016000206000815480929190610d8090612884565b91905055507f31dcad4840c3951058f13581a07253b4b2bf340b350e1d7ba282f33140a4835b600760009054906101000a900473ffffffffffffffffffffffffffffffffffffffff166001604051610dd9929190612907565b60405180910390a1601160056000600660009054906101000a900473ffffffffffffffffffffffffffffffffffffffff1673ffffffffffffffffffffffffffffffffffffffff1673ffffffffffffffffffffffffffffffffffffffff1681526020019081526020016000205410610ed3576003600160146101000a81548160ff02191690836003811115610e7057610e6f611efe565b5b02179055507ff556ad7790e70877edcf3b3bb441255def8a405faa0dfdb005a02fa8e557bca9600660009054906101000a900473ffffffffffffffffffffffffffffffffffffffff16604051610ec69190612136565b60405180910390a1610fe0565b600760009054906101000a900473ffffffffffffffffffffffffffffffffffffffff16600660009054906101000a900473ffffffffffffffffffffffffffffffffffffffff1660066000600760008491906101000a81548173ffffffffffffffffffffffffffffffffffffffff021916908373ffffffffffffffffffffffffffffffffffffffff1602179055508391906101000a81548173ffffffffffffffffffffffffffffffffffffffff021916908373ffffffffffffffffffffffffffffffffffffffff16021790555050506000600160156101000a81548160ff02191690836001811115610fc757610fc6611efe565b5b0217905550601443610fd99190612778565b6003819055505b5b5b565b60056020528060005260406000206000915090505481565b60095481565b60008054906101000a900473ffffffffffffffffffffffffffffffffffffffff1673ffffffffffffffffffffffffffffffffffffffff163373ffffffffffffffffffffffffffffffffffffffff1614806110a95750600160009054906101000a900473ffffffffffffffffffffffffffffffffffffffff1673ffffffffffffffffffffffffffffffffffffffff163373ffffffffffffffffffffffffffffffffffffffff16145b6110e8576040517f08c379a00000000000000000000000000000000000000000000000000000000081526004016110df906123c6565b60405180910390fd5b600260038111156110fc576110fb611efe565b5b600160149054906101000a900460ff16600381111561111e5761111d611efe565b5b1461115e576040517f08c379a0000000000000000000000000000000000000000000000000000000008152600401611155906127f8565b60405180910390fd5b60018081111561117157611170611efe565b5b600160159054906101000a900460ff16600181111561119357611192611efe565b5b146111d3576040517f08c379a00000000000000000000000000000000000000000000000000000000081526004016111ca9061297c565b60405180910390fd5b600760009054906101000a900473ffffffffffffffffffffffffffffffffffffffff1673ffffffffffffffffffffffffffffffffffffffff163373ffffffffffffffffffffffffffffffffffffffff1614611263576040517f08c379a000000000000000000000000000000000000000000000000000000000815260040161125a906129e8565b60405180910390fd5b6003544311156112a8576040517f08c379a000000000000000000000000000000000000000000000000000000000815260040161129f90612a54565b60405180910390fd5b600b60009054906101000a900473ffffffffffffffffffffffffffffffffffffffff1673ffffffffffffffffffffffffffffffffffffffff166334baeab9858585856040518563ffffffff1660e01b81526004016113099493929190612a84565b602060405180830381865afa158015611326573d6000803e3d6000fd5b505050506040513d601f19601f8201168201806040525081019061134a919061253d565b611389576040517f08c379a0000000000000000000000000000000000000000000000000000000008152600401611380906125b6565b60405180910390fd5b60006040518060400160405280836001600581106113aa576113a961271a565b5b60200201358152602001836002600581106113c8576113c761271a565b5b602002013581525090508060000151600460003373ffffffffffffffffffffffffffffffffffffffff1673ffffffffffffffffffffffffffffffffffffffff1681526020019081526020016000206000015414801561146c57508060200151600460003373ffffffffffffffffffffffffffffffffffffffff1673ffffffffffffffffffffffffffffffffffffffff16815260200190815260200160002060010154145b6114ab576040517f08c379a00000000000000000000000000000000000000000000000000000000081526004016114a290612b17565b60405180910390fd5b6000826000600581106114c1576114c061271a565b5b602002013590506000836003600581106114de576114dd61271a565b5b602002013590506000846004600581106114fb576114fa61271a565b5b6020020135905060085482148015611514575060095481145b611553576040517f08c379a000000000000000000000000000000000000000000000000000000000815260040161154a90612b83565b60405180910390fd5b60008311156115d45760056000600660009054906101000a900473ffffffffffffffffffffffffffffffffffffffff1673ffffffffffffffffffffffffffffffffffffffff1673ffffffffffffffffffffffffffffffffffffffff16815260200190815260200160002060008154809291906115ce90612884565b91905055505b7f31dcad4840c3951058f13581a07253b4b2bf340b350e1d7ba282f33140a4835b3384604051611605929190612ba3565b60405180910390a1601160056000600660009054906101000a900473ffffffffffffffffffffffffffffffffffffffff1673ffffffffffffffffffffffffffffffffffffffff1673ffffffffffffffffffffffffffffffffffffffff16815260200190815260200160002054106116ff576003600160146101000a81548160ff0219169083600381111561169c5761169b611efe565b5b02179055507ff556ad7790e70877edcf3b3bb441255def8a405faa0dfdb005a02fa8e557bca9600660009054906101000a900473ffffffffffffffffffffffffffffffffffffffff166040516116f29190612136565b60405180910390a161180c565b600760009054906101000a900473ffffffffffffffffffffffffffffffffffffffff16600660009054906101000a900473ffffffffffffffffffffffffffffffffffffffff1660066000600760008491906101000a81548173ffffffffffffffffffffffffffffffffffffffff021916908373ffffffffffffffffffffffffffffffffffffffff1602179055508391906101000a81548173ffffffffffffffffffffffffffffffffffffffff021916908373ffffffffffffffffffffffffffffffffffffffff16021790555050506000600160156101000a81548160ff021916908360018111156117f3576117f2611efe565b5b02179055506014436118059190612778565b6003819055505b5050505050505050565b60025481565b600660009054906101000a900473ffffffffffffffffffffffffffffffffffffffff1681565b6000600381111561185657611855611efe565b5b600160149054906101000a900460ff16600381111561187857611877611efe565b5b146118b8576040517f08c379a00000000000000000000000000000000000000000000000000000000081526004016118af90612c18565b60405180910390fd5b600073ffffffffffffffffffffffffffffffffffffffff1660008054906101000a900473ffffffffffffffffffffffffffffffffffffffff1673ffffffffffffffffffffffffffffffffffffffff1614806119615750600073ffffffffffffffffffffffffffffffffffffffff16600160009054906101000a900473ffffffffffffffffffffffffffffffffffffffff1673ffffffffffffffffffffffffffffffffffffffff16145b6119a0576040517f08c379a000000000000000000000000000000000000000000000000000000000815260040161199790612c84565b60405180910390fd5b600073ffffffffffffffffffffffffffffffffffffffff1660008054906101000a900473ffffffffffffffffffffffffffffffffffffffff1673ffffffffffffffffffffffffffffffffffffffff1603611a3957336000806101000a81548173ffffffffffffffffffffffffffffffffffffffff021916908373ffffffffffffffffffffffffffffffffffffffff160217905550611ab8565b33600160006101000a81548173ffffffffffffffffffffffffffffffffffffffff021916908373ffffffffffffffffffffffffffffffffffffffff16021790555060018060146101000a81548160ff02191690836003811115611a9f57611a9e611efe565b5b0217905550607843611ab19190612778565b6002819055505b7fd196f2977fe2b8b63f631a98b5e5967845e4fcf00f48ced5587cafe76122ea9c33604051611ae79190612136565b60405180910390a1565b60085481565b600760009054906101000a900473ffffffffffffffffffffffffffffffffffffffff1681565b600160149054906101000a900460ff1681565b60008054906101000a900473ffffffffffffffffffffffffffffffffffffffff1681565b60008054906101000a900473ffffffffffffffffffffffffffffffffffffffff1673ffffffffffffffffffffffffffffffffffffffff163373ffffffffffffffffffffffffffffffffffffffff161480611bfb5750600160009054906101000a900473ffffffffffffffffffffffffffffffffffffffff1673ffffffffffffffffffffffffffffffffffffffff163373ffffffffffffffffffffffffffffffffffffffff16145b611c3a576040517f08c379a0000000000000000000000000000000000000000000000000000000008152600401611c31906123c6565b60405180910390fd5b60026003811115611c4e57611c4d611efe565b5b600160149054906101000a900460ff166003811115611c7057611c6f611efe565b5b14611cb0576040517f08c379a0000000000000000000000000000000000000000000000000000000008152600401611ca7906127f8565b60405180910390fd5b60006001811115611cc457611cc3611efe565b5b600160159054906101000a900460ff166001811115611ce657611ce5611efe565b5b14611d26576040517f08c379a0000000000000000000000000000000000000000000000000000000008152600401611d1d90612cf0565b60405180910390fd5b600660009054906101000a900473ffffffffffffffffffffffffffffffffffffffff1673ffffffffffffffffffffffffffffffffffffffff163373ffffffffffffffffffffffffffffffffffffffff1614611db6576040517f08c379a0000000000000000000000000000000000000000000000000000000008152600401611dad906129e8565b60405180910390fd5b600354431115611dfb576040517f08c379a0000000000000000000000000000000000000000000000000000000008152600401611df290612d5c565b60405180910390fd5b600a82108015611e0b5750600a81105b611e4a576040517f08c379a0000000000000000000000000000000000000000000000000000000008152600401611e4190612dc8565b60405180910390fd5b816008819055508060098190555060018060156101000a81548160ff02191690836001811115611e7d57611e7c611efe565b5b0217905550601443611e8f9190612778565b6003819055507fc9491c4aa4f0f11df90ad3e31f2ffe8da60b1203bda74d4a5d13b331111abca5338383604051611ec893929190612de8565b60405180910390a15050565b60046020528060005260406000206000915090508060000154908060010154905082565b60035481565b7f4e487b7100000000000000000000000000000000000000000000000000000000600052602160045260246000fd5b60028110611f3e57611f3d611efe565b5b50565b6000819050611f4f82611f2d565b919050565b6000611f5f82611f41565b9050919050565b611f6f81611f54565b82525050565b6000602082019050611f8a6000830184611f66565b92915050565b600073ffffffffffffffffffffffffffffffffffffffff82169050919050565b6000819050919050565b6000611fd5611fd0611fcb84611f90565b611fb0565b611f90565b9050919050565b6000611fe782611fba565b9050919050565b6000611ff982611fdc565b9050919050565b61200981611fee565b82525050565b60006020820190506120246000830184612000565b92915050565b600080fd5b600080fd5b6000819050826020600202820111156120505761204f61202f565b5b92915050565b6000819050826040600202820111156120725761207161202f565b5b92915050565b60008060008061014085870312156120935761209261202a565b5b60006120a187828801612034565b94505060406120b287828801612056565b93505060c06120c387828801612034565b9250506101006120d587828801612034565b91505092959194509250565b6000819050919050565b6120f4816120e1565b82525050565b600060208201905061210f60008301846120eb565b92915050565b600061212082611f90565b9050919050565b61213081612115565b82525050565b600060208201905061214b6000830184612127565b92915050565b600061215c82611fdc565b9050919050565b61216c81612151565b82525050565b60006020820190506121876000830184612163565b92915050565b61219681612115565b81146121a157600080fd5b50565b6000813590506121b38161218d565b92915050565b6000602082840312156121cf576121ce61202a565b5b60006121dd848285016121a4565b91505092915050565b6000819050826020600502820111156122025761220161202f565b5b92915050565b6000806000806101a085870312156122235761222261202a565b5b600061223187828801612034565b945050604061224287828801612056565b93505060c061225387828801612034565b925050610100612265878288016121e6565b91505092959194509250565b6004811061228257612281611efe565b5b50565b600081905061229382612271565b919050565b60006122a382612285565b9050919050565b6122b381612298565b82525050565b60006020820190506122ce60008301846122aa565b92915050565b6122dd816120e1565b81146122e857600080fd5b50565b6000813590506122fa816122d4565b92915050565b600080604083850312156123175761231661202a565b5b6000612325858286016122eb565b9250506020612336858286016122eb565b9150509250929050565b600060408201905061235560008301856120eb565b61236260208301846120eb565b9392505050565b600082825260208201905092915050565b7f4e6f74206120706c617965720000000000000000000000000000000000000000600082015250565b60006123b0600c83612369565b91506123bb8261237a565b602082019050919050565b600060208201905081810360008301526123df816123a3565b9050919050565b82818337505050565b6123fb604083836123e6565b5050565b600060029050919050565b600081905092915050565b6000819050919050565b61242b604083836123e6565b5050565b600061243b838361241f565b60408301905092915050565b600082905092915050565b6000604082019050919050565b612468816123ff565b612472818461240a565b925061247d82612415565b8060005b838110156124b6576124938284612447565b61249d878261242f565b96506124a883612452565b925050600181019050612481565b505050505050565b6000610140820190506124d460008301876123ef565b6124e1604083018661245f565b6124ee60c08301856123ef565b6124fc6101008301846123ef565b95945050505050565b60008115159050919050565b61251a81612505565b811461252557600080fd5b50565b60008151905061253781612511565b92915050565b6000602082840312156125535761255261202a565b5b600061256184828501612528565b91505092915050565b7f496e76616c69642070726f6f6600000000000000000000000000000000000000600082015250565b60006125a0600d83612369565b91506125ab8261256a565b602082019050919050565b600060208201905081810360008301526125cf81612593565b9050919050565b7f4e6f7420636f6d6d697420706861736500000000000000000000000000000000600082015250565b600061260c601083612369565b9150612617826125d6565b602082019050919050565b6000602082019050818103600083015261263b816125ff565b9050919050565b7f416c726561647920636f6d6d6974746564000000000000000000000000000000600082015250565b6000612678601183612369565b915061268382612642565b602082019050919050565b600060208201905081810360008301526126a78161266b565b9050919050565b7f436f6d6d697420646561646c696e652070617373656400000000000000000000600082015250565b60006126e4601683612369565b91506126ef826126ae565b602082019050919050565b60006020820190508181036000830152612713816126d7565b9050919050565b7f4e487b7100000000000000000000000000000000000000000000000000000000600052603260045260246000fd5b7f4e487b7100000000000000000000000000000000000000000000000000000000600052601160045260246000fd5b6000612783826120e1565b915061278e836120e1565b92508282019050808211156127a6576127a5612749565b5b92915050565b7f47616d65206e6f74206163746976650000000000000000000000000000000000600082015250565b60006127e2600f83612369565b91506127ed826127ac565b602082019050919050565b60006020820190508181036000830152612811816127d5565b9050919050565b7f446561646c696e65206e6f742070617373656400000000000000000000000000600082015250565b600061284e601383612369565b915061285982612818565b602082019050919050565b6000602082019050818103600083015261287d81612841565b9050919050565b600061288f826120e1565b91507fffffffffffffffffffffffffffffffffffffffffffffffffffffffffffffffff82036128c1576128c0612749565b5b600182019050919050565b6000819050919050565b60006128f16128ec6128e7846128cc565b611fb0565b6120e1565b9050919050565b612901816128d6565b82525050565b600060408201905061291c6000830185612127565b61292960208301846128f8565b9392505050565b7f4e6f742070726f6f662070686173650000000000000000000000000000000000600082015250565b6000612966600f83612369565b915061297182612930565b602082019050919050565b6000602082019050818103600083015261299581612959565b9050919050565b7f4e6f7420796f7572207475726e00000000000000000000000000000000000000600082015250565b60006129d2600d83612369565b91506129dd8261299c565b602082019050919050565b60006020820190508181036000830152612a01816129c5565b9050919050565b7f50726f6f6620646561646c696e65207061737365640000000000000000000000600082015250565b6000612a3e601583612369565b9150612a4982612a08565b602082019050919050565b60006020820190508181036000830152612a6d81612a31565b9050919050565b612a8060a083836123e6565b5050565b60006101a082019050612a9a60008301876123ef565b612aa7604083018661245f565b612ab460c08301856123ef565b612ac2610100830184612a74565b95945050505050565b7f496e76616c696420636f6d6d69746d656e740000000000000000000000000000600082015250565b6000612b01601283612369565b9150612b0c82612acb565b602082019050919050565b60006020820190508181036000830152612b3081612af4565b9050919050565b7f496e76616c69642061747461636b20636f6f7264696e61746573000000000000600082015250565b6000612b6d601a83612369565b9150612b7882612b37565b602082019050919050565b60006020820190508181036000830152612b9c81612b60565b9050919050565b6000604082019050612bb86000830185612127565b612bc560208301846120eb565b9392505050565b7f47616d6520616c72656164792073746172746564000000000000000000000000600082015250565b6000612c02601483612369565b9150612c0d82612bcc565b602082019050919050565b60006020820190508181036000830152612c3181612bf5565b9050919050565b7f47616d652066756c6c0000000000000000000000000000000000000000000000600082015250565b6000612c6e600983612369565b9150612c7982612c38565b602082019050919050565b60006020820190508181036000830152612c9d81612c61565b9050919050565b7f4e6f742061747461636b20706861736500000000000000000000000000000000600082015250565b6000612cda601083612369565b9150612ce582612ca4565b602082019050919050565b60006020820190508181036000830152612d0981612ccd565b9050919050565b7f5475726e20646561646c696e6520706173736564000000000000000000000000600082015250565b6000612d46601483612369565b9150612d5182612d10565b602082019050919050565b60006020820190508181036000830152612d7581612d39565b9050919050565b7f496e76616c696420636f6f7264696e6174657300000000000000000000000000600082015250565b6000612db2601383612369565b9150612dbd82612d7c565b602082019050919050565b60006020820190508181036000830152612de181612da5565b9050919050565b6000606082019050612dfd6000830186612127565b612e0a60208301856120eb565b612e1760408301846120eb565b94935050505056fea2646970667358221220a21421b5ab52d6f1d7a8ad256cb58937b8abfcb90672e21993bb7978421d742e64736f6c634300081c0033",
  "linkReferences": {},
  "deployedLinkReferences": {}
}