{
  "_format": "hh-sol-artifact-1",
  "contractName": "GridPosGroth16Verifier",
  "sourceName": "contracts/GridPosGroth16Verifier.sol",
  "abi": [
    {
      "inputs": [
        {
          "internalType": "uint256[2]",
          "name": "_pA",
          "type": "uint256[2]"
        },
        {
          "internalType": "uint256[2][2]",
          "name": "_pB",
          "type": "uint256[2][2]"
        },
        {
          "internalType": "uint256[2]",
          "name": "_pC",
          "type": "uint256[2]"
        },
        {
          "internalType": "uint256[5]",
          "name": "_pubSignals",
          "type": "uint256[5]"
        }
      ],
      "name": "verifyProof",
      "outputs": [
        {
          "internalType": "bool",
          "name": "",
          "type": "bool"
        }
      ],
      "stateMutability": "view",
      "type": "function"
    }
  ],
  "bytecode": "0x6080604052348015600f57600080fd5b506107758061001f6000396000f3fe608060405234801561001057600080fd5b506004361061002b5760003560e01c806334baeab914610030575b600080fd5b61004a600480360381019061004591906106a0565b610060565b6040516100579190610724565b60405180910390f35b60006105cd565b7f30644e72e131a029b85045b68181585d2833e84879b9709143e1f593f00000018110610098576000805260206000f35b50565b600060405183815284602082015285604082015260408160608360076107d05a03fa9150816100ce576000805260206000f35b825160408201526020830151606082015260408360808360066107d05a03fa9150816100fe576000805260206000f35b505050505050565b600060808601600087017f1445d895122e28ebf3c3fb0cb39299f59ec925f1e69bfec429c0422574307baa81527f179c432fcfc395fd87042730551730ae0962a3063e9d3f9442ae65278929e2d060208201526101a960008801357f1a0100c988fee0b70a0d4491dcf906ecaed9cd47decac06d8f5e6b224777b1667f0e9d35586abfe99e48e0a998fef3e577a4389bf5cee29c650b91faa5ba3fe5f48461009b565b6101f960208801357f1686c8b792668045c9e97497b03c25556d3b8c70b607d85b599bbd435cf39d837f11c7269bce2b53030f52cc9b30e8696952b139dba3b9b7f0fdc869020bc2126c8461009b565b61024960408801357f2daca046a4b6f5c1c6d162793d19d717ac77b646e60a4472aeb81caa96c8e3f07f128a50915d1133bf91b06c3c377c0c3cf1c224a2b70bd69fe8f33be9b984744c8461009b565b61029960608801357f20a004c6248a9aa98080330f3c9b24a7cfa3ec3b5f2d836af3abf65576b92a597f264e1cda9d14f267ad759175f15849ecd33397cdc2e48c2ea9e0950bbe1d9ef18461009b565b6102e960808801357f2ec5b7ec070bfcedb7080761d0d373b1db25e1ac04bbffb9d75339b8a5d342ca7f1e13e39139b098b1fd009bf0b667bd1e6187b5f65bbd9b707ec3eb8df27008b48461009b565b833582527f30644e72e131a029b85045b68181585d97816a916871ca8d3c208c16d87cfd4760208501357f30644e72e131a029b85045b68181585d97816a916871ca8d3c208c16d87cfd4703066020830152843560408301526020850135606083015260408501356080830152606085013560a08301527f0f848db2cbff18f9c101db86bc99f0c906f158f36ccf295fa31ca7ce8f79a20560c08301527f2176bcf79b89dbecfdba4bc887a430aa687c27c36e05ab624c3a3bd4041d636b60e08301527f1b1713dff027b29090544dbceb2b2178399a2582604eeb1778aba730e72ddeb26101008301527f2680efab96a81da4d9fe81aac6c3b4499d7bf979d00bde3608ac8aad0da751c86101208301527f2ded1086e939bad03f500c9e90c101253072a8882234000ea24c95ab2434deaa6101408301527f0c992c04a997d0fc5bf467d6c4d0061ff0bf4cc143f69c4c1459692d90ff0367610160830152600088015161018083015260206000018801516101a08301527f198e9393920d483a7260bfb731fb5d25f1aa493335a9e71297e485b7aef312c26101c08301527f1800deef121f1e76426a00665e5c4479674322d4f75edadd46debd5cd992f6ed6101e08301527f090689d0585ff075ec9e99ad690c3395bc4b313370b38ef355acdadcd122975b6102008301527f12c85ea5db8c6deb4aab71808dcb408fe3d1e7690c43d37b4ce6cc0166fa7daa610220830152853561024083015260208601356102608301527f1334be320df3c41126d40ab9e81c4f201820a364456885f4b106af271319c7696102808301527f0cb781c7dba9fad3ce0e7890862698d022c10ffbf8d9a0c7234289fe0c5c9f226102a08301527f1e4f74afdf5c878da4f6ff1e69237065e46224efa3e9d3875a916c16692f6b126102c08301527f168a598ceff4c078d19a2833b635c5d5851b68549c5d60a13e85f1d5bca483486102e08301526020826103008460086107d05a03fa82518116935050505095945050505050565b60405161038081016040526105e56000840135610067565b6105f26020840135610067565b6105ff6040840135610067565b61060c6060840135610067565b6106196080840135610067565b610626818486888a610106565b8060005260206000f35b600080fd5b600080fd5b60008190508260206002028201111561065657610655610635565b5b92915050565b60008190508260406002028201111561067857610677610635565b5b92915050565b60008190508260206005028201111561069a57610699610635565b5b92915050565b6000806000806101a085870312156106bb576106ba610630565b5b60006106c98782880161063a565b94505060406106da8782880161065c565b93505060c06106eb8782880161063a565b9250506101006106fd8782880161067e565b91505092959194509250565b60008115159050919050565b61071e81610709565b82525050565b60006020820190506107396000830184610715565b9291505056fea26469706673582212205363bb13ca276d8dfd8e0c7f23ea8c11dbe0c4186e337b255fae928e87359dc164736f6c634300081c0033",
  "linkReferences": {},
  "deployedLinkReferences": {}
}